{
  "_format": "hh-sol-artifact-1",
  "contractName": "Staking",
  "sourceName": "contracts/Staking.sol",
  "abi": [
    {
      "inputs": [
        {
          "internalType": "address",
          "name": "_stakeToken",
          "type": "address"
        },
        {
          "internalType": "address",
          "name": "_rewardToken",
          "type": "address"
        }
      ],
      "stateMutability": "nonpayable",
      "type": "constructor"
    },
    {
      "inputs": [
        {
          "internalType": "address",
          "name": "owner",
          "type": "address"
        }
      ],
      "name": "OwnableInvalidOwner",
      "type": "error"
    },
    {
      "inputs": [
        {
          "internalType": "address",
          "name": "account",
          "type": "address"
        }
      ],
      "name": "OwnableUnauthorizedAccount",
      "type": "error"
    },
    {
      "inputs": [],
      "name": "ReentrancyGuardReentrantCall",
      "type": "error"
    },
    {
      "anonymous": false,
      "inputs": [
        {
          "indexed": true,
          "internalType": "address",
          "name": "previousOwner",
          "type": "address"
        },
        {
          "indexed": true,
          "internalType": "address",
          "name": "newOwner",
          "type": "address"
        }
      ],
      "name": "OwnershipTransferred",
      "type": "event"
    },
    {
      "anonymous": false,
      "inputs": [
        {
          "indexed": true,
          "internalType": "address",
          "name": "user",
          "type": "address"
        },
        {
          "indexed": false,
          "internalType": "uint256",
          "name": "amount",
          "type": "uint256"
        }
      ],
      "name": "RewardClaimed",
      "type": "event"
    },
    {
      "anonymous": false,
      "inputs": [
        {
          "indexed": false,
          "internalType": "uint256",
          "name": "newRate",
          "type": "uint256"
        }
      ],
      "name": "RewardRateChanged",
      "type": "event"
    },
    {
      "anonymous": false,
      "inputs": [
        {
          "indexed": true,
          "internalType": "address",
          "name": "user",
          "type": "address"
        },
        {
          "indexed": false,
          "internalType": "uint256",
          "name": "amount",
          "type": "uint256"
        }
      ],
      "name": "Staked",
      "type": "event"
    },
    {
      "anonymous": false,
      "inputs": [
        {
          "indexed": true,
          "internalType": "address",
          "name": "user",
          "type": "address"
        },
        {
          "indexed": false,
          "internalType": "uint256",
          "name": "amount",
          "type": "uint256"
        }
      ],
      "name": "Unstaked",
      "type": "event"
    },
    {
      "inputs": [],
      "name": "accRewardPerShare",
      "outputs": [
        {
          "internalType": "uint256",
          "name": "",
          "type": "uint256"
        }
      ],
      "stateMutability": "view",
      "type": "function"
    },
    {
      "inputs": [],
      "name": "claimReward",
      "outputs": [],
      "stateMutability": "nonpayable",
      "type": "function"
    },
    {
      "inputs": [],
      "name": "lastRewardTime",
      "outputs": [
        {
          "internalType": "uint256",
          "name": "",
          "type": "uint256"
        }
      ],
      "stateMutability": "view",
      "type": "function"
    },
    {
      "inputs": [],
      "name": "owner",
      "outputs": [
        {
          "internalType": "address",
          "name": "",
          "type": "address"
        }
      ],
      "stateMutability": "view",
      "type": "function"
    },
    {
      "inputs": [
        {
          "internalType": "address",
          "name": "_user",
          "type": "address"
        }
      ],
      "name": "pendingReward",
      "outputs": [
        {
          "internalType": "uint256",
          "name": "",
          "type": "uint256"
        }
      ],
      "stateMutability": "view",
      "type": "function"
    },
    {
      "inputs": [],
      "name": "renounceOwnership",
      "outputs": [],
      "stateMutability": "nonpayable",
      "type": "function"
    },
    {
      "inputs": [],
      "name": "rewardRate",
      "outputs": [
        {
          "internalType": "uint256",
          "name": "",
          "type": "uint256"
        }
      ],
      "stateMutability": "view",
      "type": "function"
    },
    {
      "inputs": [],
      "name": "rewardToken",
      "outputs": [
        {
          "internalType": "contract IERC20",
          "name": "",
          "type": "address"
        }
      ],
      "stateMutability": "view",
      "type": "function"
    },
    {
      "inputs": [
        {
          "internalType": "uint256",
          "name": "_newRate",
          "type": "uint256"
        }
      ],
      "name": "setRewardRate",
      "outputs": [],
      "stateMutability": "nonpayable",
      "type": "function"
    },
    {
      "inputs": [
        {
          "internalType": "uint256",
          "name": "_amount",
          "type": "uint256"
        }
      ],
      "name": "stake",
      "outputs": [],
      "stateMutability": "nonpayable",
      "type": "function"
    },
    {
      "inputs": [],
      "name": "stakeToken",
      "outputs": [
        {
          "internalType": "contract IERC20",
          "name": "",
          "type": "address"
        }
      ],
      "stateMutability": "view",
      "type": "function"
    },
    {
      "inputs": [],
      "name": "totalStaked",
      "outputs": [
        {
          "internalType": "uint256",
          "name": "",
          "type": "uint256"
        }
      ],
      "stateMutability": "view",
      "type": "function"
    },
    {
      "inputs": [
        {
          "internalType": "address",
          "name": "newOwner",
          "type": "address"
        }
      ],
      "name": "transferOwnership",
      "outputs": [],
      "stateMutability": "nonpayable",
      "type": "function"
    },
    {
      "inputs": [
        {
          "internalType": "uint256",
          "name": "_amount",
          "type": "uint256"
        }
      ],
      "name": "unstake",
      "outputs": [],
      "stateMutability": "nonpayable",
      "type": "function"
    },
    {
      "inputs": [],
      "name": "updatePool",
      "outputs": [],
      "stateMutability": "nonpayable",
      "type": "function"
    },
    {
      "inputs": [
        {
          "internalType": "address",
          "name": "",
          "type": "address"
        }
      ],
      "name": "userInfo",
      "outputs": [
        {
          "internalType": "uint256",
          "name": "amount",
          "type": "uint256"
        },
        {
          "internalType": "uint256",
          "name": "rewardDebt",
          "type": "uint256"
        }
      ],
      "stateMutability": "view",
      "type": "function"
    }
  ],
  "bytecode": "0x60c0604052670de0b6b3a764000060045534801561001c57600080fd5b50604051611962380380611962833981810160405281019061003e9190610265565b33600073ffffffffffffffffffffffffffffffffffffffff168173ffffffffffffffffffffffffffffffffffffffff16036100b15760006040517f1e4fbdf70000000000000000000000000000000000000000000000000000000081526004016100a891906102b4565b60405180910390fd5b6100c08161013e60201b60201c565b50600180819055508173ffffffffffffffffffffffffffffffffffffffff1660808173ffffffffffffffffffffffffffffffffffffffff16815250508073ffffffffffffffffffffffffffffffffffffffff1660a08173ffffffffffffffffffffffffffffffffffffffff16815250504260068190555050506102cf565b60008060009054906101000a900473ffffffffffffffffffffffffffffffffffffffff169050816000806101000a81548173ffffffffffffffffffffffffffffffffffffffff021916908373ffffffffffffffffffffffffffffffffffffffff1602179055508173ffffffffffffffffffffffffffffffffffffffff168173ffffffffffffffffffffffffffffffffffffffff167f8be0079c531659141344cd1fd0a4f28419497f9722a3daafe3b4186f6b6457e060405160405180910390a35050565b600080fd5b600073ffffffffffffffffffffffffffffffffffffffff82169050919050565b600061023282610207565b9050919050565b61024281610227565b811461024d57600080fd5b50565b60008151905061025f81610239565b92915050565b6000806040838503121561027c5761027b610202565b5b600061028a85828601610250565b925050602061029b85828601610250565b9150509250929050565b6102ae81610227565b82525050565b60006020820190506102c960008301846102a5565b92915050565b60805160a05161164b61031760003960008181610c7701528181610ce301528181610d870152610e2b0152600081816104c4015281816105be01526107c7015261164b6000f3fe608060405234801561001057600080fd5b50600436106101005760003560e01c8063939d623711610097578063e3161ddd11610066578063e3161ddd14610252578063f2fde38b1461025c578063f40f0f5214610278578063f7c618c1146102a857610100565b8063939d6237146101f25780639e447fc614610210578063a694fc3a1461022c578063b88a802f1461024857610100565b80637b0a47ee116100d35780637b0a47ee1461017a578063817b1cd2146101985780638da5cb5b146101b65780639231cf74146101d457610100565b80631959a002146101055780632e17de781461013657806351ed6a3014610152578063715018a614610170575b600080fd5b61011f600480360381019061011a919061108d565b6102c6565b60405161012d9291906110d3565b60405180910390f35b610150600480360381019061014b9190611128565b6102ea565b005b61015a6105bc565b60405161016791906111b4565b60405180910390f35b6101786105e0565b005b6101826105f4565b60405161018f91906111cf565b60405180910390f35b6101a06105fa565b6040516101ad91906111cf565b60405180910390f35b6101be610600565b6040516101cb91906111f9565b60405180910390f35b6101dc610629565b6040516101e991906111cf565b60405180910390f35b6101fa61062f565b60405161020791906111cf565b60405180910390f35b61022a60048036038101906102259190611128565b610635565b005b61024660048036038101906102419190611128565b610686565b005b610250610921565b005b61025a610a80565b005b6102766004803603810190610271919061108d565b610b09565b005b610292600480360381019061028d919061108d565b610b8f565b60405161029f91906111cf565b60405180910390f35b6102b0610c75565b6040516102bd91906111b4565b60405180910390f35b60026020528060005260406000206000915090508060000154908060010154905082565b6102f2610c99565b6000600260003373ffffffffffffffffffffffffffffffffffffffff1673ffffffffffffffffffffffffffffffffffffffff1681526020019081526020016000209050818160000154101561037c576040517f08c379a000000000000000000000000000000000000000000000000000000000815260040161037390611271565b60405180910390fd5b600082116103bf576040517f08c379a00000000000000000000000000000000000000000000000000000000081526004016103b6906112dd565b60405180910390fd5b6103c7610a80565b60008160010154670de0b6b3a764000060055484600001546103e9919061132c565b6103f3919061139d565b6103fd91906113ce565b90506000811115610461576104123382610cdf565b3373ffffffffffffffffffffffffffffffffffffffff167f106f923f993c2149d49b4255ff723acafa1f2d94393f561d3eda32ae348f72418260405161045891906111cf565b60405180910390a25b8282600001600082825461047591906113ce565b92505081905550826003600082825461048e91906113ce565b92505081905550670de0b6b3a764000060055483600001546104b0919061132c565b6104ba919061139d565b82600101819055507f000000000000000000000000000000000000000000000000000000000000000073ffffffffffffffffffffffffffffffffffffffff1663a9059cbb33856040518363ffffffff1660e01b815260040161051d929190611402565b6020604051808303816000875af115801561053c573d6000803e3d6000fd5b505050506040513d601f19601f820116820180604052508101906105609190611463565b503373ffffffffffffffffffffffffffffffffffffffff167f0f5bb82176feb1b5e747e28471aa92156a04d9f3ab9f45f28e2d704232b93f75846040516105a791906111cf565b60405180910390a250506105b9610ece565b50565b7f000000000000000000000000000000000000000000000000000000000000000081565b6105e8610ed7565b6105f26000610f5e565b565b60045481565b60035481565b60008060009054906101000a900473ffffffffffffffffffffffffffffffffffffffff16905090565b60065481565b60055481565b61063d610ed7565b610645610a80565b806004819055507f1e3be2efa25bca5bff2215c7b30b31086e703d6aa7d9b9a1f8ba62c5291219ad8160405161067b91906111cf565b60405180910390a150565b61068e610c99565b600081116106d1576040517f08c379a00000000000000000000000000000000000000000000000000000000081526004016106c8906114dc565b60405180910390fd5b6000600260003373ffffffffffffffffffffffffffffffffffffffff1673ffffffffffffffffffffffffffffffffffffffff168152602001908152602001600020905061071c610a80565b6000816000015411156107c55760008160010154670de0b6b3a7640000600554846000015461074b919061132c565b610755919061139d565b61075f91906113ce565b905060008111156107c3576107743382610cdf565b3373ffffffffffffffffffffffffffffffffffffffff167f106f923f993c2149d49b4255ff723acafa1f2d94393f561d3eda32ae348f7241826040516107ba91906111cf565b60405180910390a25b505b7f000000000000000000000000000000000000000000000000000000000000000073ffffffffffffffffffffffffffffffffffffffff166323b872dd3330856040518463ffffffff1660e01b8152600401610822939291906114fc565b6020604051808303816000875af1158015610841573d6000803e3d6000fd5b505050506040513d601f19601f820116820180604052508101906108659190611463565b508181600001600082825461087a9190611533565b9250508190555081600360008282546108939190611533565b92505081905550670de0b6b3a764000060055482600001546108b5919061132c565b6108bf919061139d565b81600101819055503373ffffffffffffffffffffffffffffffffffffffff167f9e71bc8eea02a63969f509818f2dafb9254532904319f9dbda79b67bd34a5f3d8360405161090d91906111cf565b60405180910390a25061091e610ece565b50565b610929610c99565b6000600260003373ffffffffffffffffffffffffffffffffffffffff1673ffffffffffffffffffffffffffffffffffffffff1681526020019081526020016000209050610974610a80565b60008160010154670de0b6b3a76400006005548460000154610996919061132c565b6109a0919061139d565b6109aa91906113ce565b9050600081116109ef576040517f08c379a00000000000000000000000000000000000000000000000000000000081526004016109e6906115b3565b60405180910390fd5b6109f93382610cdf565b670de0b6b3a76400006005548360000154610a14919061132c565b610a1e919061139d565b82600101819055503373ffffffffffffffffffffffffffffffffffffffff167f106f923f993c2149d49b4255ff723acafa1f2d94393f561d3eda32ae348f724182604051610a6c91906111cf565b60405180910390a25050610a7e610ece565b565b600060035403610a965742600681905550610b07565b600060065442610aa691906113ce565b90506000811115610afe57600060045482610ac1919061132c565b9050600354670de0b6b3a764000082610ada919061132c565b610ae4919061139d565b60056000828254610af59190611533565b92505081905550505b42600681905550505b565b610b11610ed7565b600073ffffffffffffffffffffffffffffffffffffffff168173ffffffffffffffffffffffffffffffffffffffff1603610b835760006040517f1e4fbdf7000000000000000000000000000000000000000000000000000000008152600401610b7a91906111f9565b60405180910390fd5b610b8c81610f5e565b50565b600080600260008473ffffffffffffffffffffffffffffffffffffffff1673ffffffffffffffffffffffffffffffffffffffff16815260200190815260200160002090506000600554905060006003541115610c3a57600060065442610bf591906113ce565b9050600060045482610c07919061132c565b9050600354670de0b6b3a764000082610c20919061132c565b610c2a919061139d565b83610c359190611533565b925050505b8160010154670de0b6b3a7640000828460000154610c58919061132c565b610c62919061139d565b610c6c91906113ce565b92505050919050565b7f000000000000000000000000000000000000000000000000000000000000000081565b600260015403610cd5576040517f3ee5aeb500000000000000000000000000000000000000000000000000000000815260040160405180910390fd5b6002600181905550565b60007f000000000000000000000000000000000000000000000000000000000000000073ffffffffffffffffffffffffffffffffffffffff166370a08231306040518263ffffffff1660e01b8152600401610d3a91906111f9565b602060405180830381865afa158015610d57573d6000803e3d6000fd5b505050506040513d601f19601f82011682018060405250810190610d7b91906115e8565b905080821115610e29577f000000000000000000000000000000000000000000000000000000000000000073ffffffffffffffffffffffffffffffffffffffff1663a9059cbb84836040518363ffffffff1660e01b8152600401610de0929190611402565b6020604051808303816000875af1158015610dff573d6000803e3d6000fd5b505050506040513d601f19601f82011682018060405250810190610e239190611463565b50610ec9565b7f000000000000000000000000000000000000000000000000000000000000000073ffffffffffffffffffffffffffffffffffffffff1663a9059cbb84846040518363ffffffff1660e01b8152600401610e84929190611402565b6020604051808303816000875af1158015610ea3573d6000803e3d6000fd5b505050506040513d601f19601f82011682018060405250810190610ec79190611463565b505b505050565b60018081905550565b610edf611022565b73ffffffffffffffffffffffffffffffffffffffff16610efd610600565b73ffffffffffffffffffffffffffffffffffffffff1614610f5c57610f20611022565b6040517f118cdaa7000000000000000000000000000000000000000000000000000000008152600401610f5391906111f9565b60405180910390fd5b565b60008060009054906101000a900473ffffffffffffffffffffffffffffffffffffffff169050816000806101000a81548173ffffffffffffffffffffffffffffffffffffffff021916908373ffffffffffffffffffffffffffffffffffffffff1602179055508173ffffffffffffffffffffffffffffffffffffffff168173ffffffffffffffffffffffffffffffffffffffff167f8be0079c531659141344cd1fd0a4f28419497f9722a3daafe3b4186f6b6457e060405160405180910390a35050565b600033905090565b600080fd5b600073ffffffffffffffffffffffffffffffffffffffff82169050919050565b600061105a8261102f565b9050919050565b61106a8161104f565b811461107557600080fd5b50565b60008135905061108781611061565b92915050565b6000602082840312156110a3576110a261102a565b5b60006110b184828501611078565b91505092915050565b6000819050919050565b6110cd816110ba565b82525050565b60006040820190506110e860008301856110c4565b6110f560208301846110c4565b9392505050565b611105816110ba565b811461111057600080fd5b50565b600081359050611122816110fc565b92915050565b60006020828403121561113e5761113d61102a565b5b600061114c84828501611113565b91505092915050565b6000819050919050565b600061117a6111756111708461102f565b611155565b61102f565b9050919050565b600061118c8261115f565b9050919050565b600061119e82611181565b9050919050565b6111ae81611193565b82525050565b60006020820190506111c960008301846111a5565b92915050565b60006020820190506111e460008301846110c4565b92915050565b6111f38161104f565b82525050565b600060208201905061120e60008301846111ea565b92915050565b600082825260208201905092915050565b7f496e73756666696369656e74207374616b656420616d6f756e74000000000000600082015250565b600061125b601a83611214565b915061126682611225565b602082019050919050565b6000602082019050818103600083015261128a8161124e565b9050919050565b7f43616e6e6f7420756e7374616b65203000000000000000000000000000000000600082015250565b60006112c7601083611214565b91506112d282611291565b602082019050919050565b600060208201905081810360008301526112f6816112ba565b9050919050565b7f4e487b7100000000000000000000000000000000000000000000000000000000600052601160045260246000fd5b6000611337826110ba565b9150611342836110ba565b9250828202611350816110ba565b91508282048414831517611367576113666112fd565b5b5092915050565b7f4e487b7100000000000000000000000000000000000000000000000000000000600052601260045260246000fd5b60006113a8826110ba565b91506113b3836110ba565b9250826113c3576113c261136e565b5b828204905092915050565b60006113d9826110ba565b91506113e4836110ba565b92508282039050818111156113fc576113fb6112fd565b5b92915050565b600060408201905061141760008301856111ea565b61142460208301846110c4565b9392505050565b60008115159050919050565b6114408161142b565b811461144b57600080fd5b50565b60008151905061145d81611437565b92915050565b6000602082840312156114795761147861102a565b5b60006114878482850161144e565b91505092915050565b7f43616e6e6f74207374616b652030000000000000000000000000000000000000600082015250565b60006114c6600e83611214565b91506114d182611490565b602082019050919050565b600060208201905081810360008301526114f5816114b9565b9050919050565b600060608201905061151160008301866111ea565b61151e60208301856111ea565b61152b60408301846110c4565b949350505050565b600061153e826110ba565b9150611549836110ba565b9250828201905080821115611561576115606112fd565b5b92915050565b7f4e6f207265776172647320746f20636c61696d00000000000000000000000000600082015250565b600061159d601383611214565b91506115a882611567565b602082019050919050565b600060208201905081810360008301526115cc81611590565b9050919050565b6000815190506115e2816110fc565b92915050565b6000602082840312156115fe576115fd61102a565b5b600061160c848285016115d3565b9150509291505056fea2646970667358221220bd42211dafc867135f91bfb34610200c25825123aefe4508ada89a183d138db664736f6c634300081c0033",
  "linkReferences": {},
  "deployedLinkReferences": {}
}